{
  "address": "0x0fC2e118ad2a047084a02adB094e92246Ce93a03",
  "abi": [
    {
      "inputs": [
        {
          "internalType": "contract ERC20",
          "name": "_asset",
          "type": "address"
        },
        {
          "internalType": "contract FlywheelCore",
          "name": "_flywheel",
          "type": "address"
        },
        {
          "internalType": "contract IGuniPool",
          "name": "_pool",
          "type": "address"
        },
        {
          "internalType": "address",
          "name": "_rewardsDestination",
          "type": "address"
        },
        {
          "internalType": "contract ERC20[]",
          "name": "_rewardTokens",
          "type": "address[]"
        }
      ],
      "stateMutability": "nonpayable",
      "type": "constructor"
    },
    {
      "anonymous": false,
      "inputs": [
        {
          "indexed": true,
          "internalType": "address",
          "name": "owner",
          "type": "address"
        },
        {
          "indexed": true,
          "internalType": "address",
          "name": "spender",
          "type": "address"
        },
        {
          "indexed": false,
          "internalType": "uint256",
          "name": "amount",
          "type": "uint256"
        }
      ],
      "name": "Approval",
      "type": "event"
    },
    {
      "anonymous": false,
      "inputs": [
        {
          "indexed": true,
          "internalType": "address",
          "name": "rewardToken",
          "type": "address"
        },
        {
          "indexed": false,
          "internalType": "uint256",
          "name": "amount",
          "type": "uint256"
        }
      ],
      "name": "ClaimRewards",
      "type": "event"
    },
    {
      "anonymous": false,
      "inputs": [
        {
          "indexed": true,
          "internalType": "address",
          "name": "caller",
          "type": "address"
        },
        {
          "indexed": true,
          "internalType": "address",
          "name": "owner",
          "type": "address"
        },
        {
          "indexed": false,
          "internalType": "uint256",
          "name": "assets",
          "type": "uint256"
        },
        {
          "indexed": false,
          "internalType": "uint256",
          "name": "shares",
          "type": "uint256"
        }
      ],
      "name": "Deposit",
      "type": "event"
    },
    {
      "anonymous": false,
      "inputs": [
        {
          "indexed": true,
          "internalType": "address",
          "name": "previousOwner",
          "type": "address"
        },
        {
          "indexed": true,
          "internalType": "address",
          "name": "newOwner",
          "type": "address"
        }
      ],
      "name": "OwnershipTransferred",
      "type": "event"
    },
    {
      "anonymous": false,
      "inputs": [
        {
          "indexed": false,
          "internalType": "address",
          "name": "account",
          "type": "address"
        }
      ],
      "name": "Paused",
      "type": "event"
    },
    {
      "anonymous": false,
      "inputs": [
        {
          "indexed": true,
          "internalType": "address",
          "name": "newDestination",
          "type": "address"
        }
      ],
      "name": "RewardDestinationUpdate",
      "type": "event"
    },
    {
      "anonymous": false,
      "inputs": [
        {
          "indexed": true,
          "internalType": "address",
          "name": "from",
          "type": "address"
        },
        {
          "indexed": true,
          "internalType": "address",
          "name": "to",
          "type": "address"
        },
        {
          "indexed": false,
          "internalType": "uint256",
          "name": "amount",
          "type": "uint256"
        }
      ],
      "name": "Transfer",
      "type": "event"
    },
    {
      "anonymous": false,
      "inputs": [
        {
          "indexed": false,
          "internalType": "address",
          "name": "account",
          "type": "address"
        }
      ],
      "name": "Unpaused",
      "type": "event"
    },
    {
      "anonymous": false,
      "inputs": [
        {
          "indexed": true,
          "internalType": "address",
          "name": "caller",
          "type": "address"
        },
        {
          "indexed": true,
          "internalType": "address",
          "name": "receiver",
          "type": "address"
        },
        {
          "indexed": true,
          "internalType": "address",
          "name": "owner",
          "type": "address"
        },
        {
          "indexed": false,
          "internalType": "uint256",
          "name": "assets",
          "type": "uint256"
        },
        {
          "indexed": false,
          "internalType": "uint256",
          "name": "shares",
          "type": "uint256"
        }
      ],
      "name": "Withdraw",
      "type": "event"
    },
    {
      "inputs": [],
      "name": "DOMAIN_SEPARATOR",
      "outputs": [
        {
          "internalType": "bytes32",
          "name": "",
          "type": "bytes32"
        }
      ],
      "stateMutability": "view",
      "type": "function"
    },
    {
      "inputs": [
        {
          "internalType": "address",
          "name": "",
          "type": "address"
        },
        {
          "internalType": "address",
          "name": "",
          "type": "address"
        }
      ],
      "name": "allowance",
      "outputs": [
        {
          "internalType": "uint256",
          "name": "",
          "type": "uint256"
        }
      ],
      "stateMutability": "view",
      "type": "function"
    },
    {
      "inputs": [
        {
          "internalType": "address",
          "name": "spender",
          "type": "address"
        },
        {
          "internalType": "uint256",
          "name": "amount",
          "type": "uint256"
        }
      ],
      "name": "approve",
      "outputs": [
        {
          "internalType": "bool",
          "name": "",
          "type": "bool"
        }
      ],
      "stateMutability": "nonpayable",
      "type": "function"
    },
    {
      "inputs": [],
      "name": "asset",
      "outputs": [
        {
          "internalType": "contract ERC20",
          "name": "",
          "type": "address"
        }
      ],
      "stateMutability": "view",
      "type": "function"
    },
    {
      "inputs": [
        {
          "internalType": "address",
          "name": "",
          "type": "address"
        }
      ],
      "name": "balanceOf",
      "outputs": [
        {
          "internalType": "uint256",
          "name": "",
          "type": "uint256"
        }
      ],
      "stateMutability": "view",
      "type": "function"
    },
    {
      "inputs": [
        {
          "internalType": "address",
          "name": "account",
          "type": "address"
        }
      ],
      "name": "balanceOfUnderlying",
      "outputs": [
        {
          "internalType": "uint256",
          "name": "",
          "type": "uint256"
        }
      ],
      "stateMutability": "view",
      "type": "function"
    },
    {
      "inputs": [],
      "name": "claimRewards",
      "outputs": [],
      "stateMutability": "nonpayable",
      "type": "function"
    },
    {
      "inputs": [
        {
          "internalType": "uint256",
          "name": "shares",
          "type": "uint256"
        }
      ],
      "name": "convertToAssets",
      "outputs": [
        {
          "internalType": "uint256",
          "name": "",
          "type": "uint256"
        }
      ],
      "stateMutability": "view",
      "type": "function"
    },
    {
      "inputs": [
        {
          "internalType": "uint256",
          "name": "assets",
          "type": "uint256"
        }
      ],
      "name": "convertToShares",
      "outputs": [
        {
          "internalType": "uint256",
          "name": "",
          "type": "uint256"
        }
      ],
      "stateMutability": "view",
      "type": "function"
    },
    {
      "inputs": [],
      "name": "decimals",
      "outputs": [
        {
          "internalType": "uint8",
          "name": "",
          "type": "uint8"
        }
      ],
      "stateMutability": "view",
      "type": "function"
    },
    {
      "inputs": [
        {
          "internalType": "uint256",
          "name": "assets",
          "type": "uint256"
        },
        {
          "internalType": "address",
          "name": "receiver",
          "type": "address"
        }
      ],
      "name": "deposit",
      "outputs": [
        {
          "internalType": "uint256",
          "name": "shares",
          "type": "uint256"
        }
      ],
      "stateMutability": "nonpayable",
      "type": "function"
    },
    {
      "inputs": [],
      "name": "emergencyWithdrawAndPause",
      "outputs": [],
      "stateMutability": "nonpayable",
      "type": "function"
    },
    {
      "inputs": [],
      "name": "flywheel",
      "outputs": [
        {
          "internalType": "contract FlywheelCore",
          "name": "",
          "type": "address"
        }
      ],
      "stateMutability": "view",
      "type": "function"
    },
    {
      "inputs": [
        {
          "internalType": "address",
          "name": "",
          "type": "address"
        }
      ],
      "name": "maxDeposit",
      "outputs": [
        {
          "internalType": "uint256",
          "name": "",
          "type": "uint256"
        }
      ],
      "stateMutability": "view",
      "type": "function"
    },
    {
      "inputs": [
        {
          "internalType": "address",
          "name": "",
          "type": "address"
        }
      ],
      "name": "maxMint",
      "outputs": [
        {
          "internalType": "uint256",
          "name": "",
          "type": "uint256"
        }
      ],
      "stateMutability": "view",
      "type": "function"
    },
    {
      "inputs": [
        {
          "internalType": "address",
          "name": "owner",
          "type": "address"
        }
      ],
      "name": "maxRedeem",
      "outputs": [
        {
          "internalType": "uint256",
          "name": "",
          "type": "uint256"
        }
      ],
      "stateMutability": "view",
      "type": "function"
    },
    {
      "inputs": [
        {
          "internalType": "address",
          "name": "owner",
          "type": "address"
        }
      ],
      "name": "maxWithdraw",
      "outputs": [
        {
          "internalType": "uint256",
          "name": "",
          "type": "uint256"
        }
      ],
      "stateMutability": "view",
      "type": "function"
    },
    {
      "inputs": [
        {
          "internalType": "uint256",
          "name": "shares",
          "type": "uint256"
        },
        {
          "internalType": "address",
          "name": "receiver",
          "type": "address"
        }
      ],
      "name": "mint",
      "outputs": [
        {
          "internalType": "uint256",
          "name": "assets",
          "type": "uint256"
        }
      ],
      "stateMutability": "nonpayable",
      "type": "function"
    },
    {
      "inputs": [],
      "name": "name",
      "outputs": [
        {
          "internalType": "string",
          "name": "",
          "type": "string"
        }
      ],
      "stateMutability": "view",
      "type": "function"
    },
    {
      "inputs": [
        {
          "internalType": "address",
          "name": "",
          "type": "address"
        }
      ],
      "name": "nonces",
      "outputs": [
        {
          "internalType": "uint256",
          "name": "",
          "type": "uint256"
        }
      ],
      "stateMutability": "view",
      "type": "function"
    },
    {
      "inputs": [],
      "name": "owner",
      "outputs": [
        {
          "internalType": "address",
          "name": "",
          "type": "address"
        }
      ],
      "stateMutability": "view",
      "type": "function"
    },
    {
      "inputs": [],
      "name": "paused",
      "outputs": [
        {
          "internalType": "bool",
          "name": "",
          "type": "bool"
        }
      ],
      "stateMutability": "view",
      "type": "function"
    },
    {
      "inputs": [
        {
          "internalType": "address",
          "name": "owner",
          "type": "address"
        },
        {
          "internalType": "address",
          "name": "spender",
          "type": "address"
        },
        {
          "internalType": "uint256",
          "name": "value",
          "type": "uint256"
        },
        {
          "internalType": "uint256",
          "name": "deadline",
          "type": "uint256"
        },
        {
          "internalType": "uint8",
          "name": "v",
          "type": "uint8"
        },
        {
          "internalType": "bytes32",
          "name": "r",
          "type": "bytes32"
        },
        {
          "internalType": "bytes32",
          "name": "s",
          "type": "bytes32"
        }
      ],
      "name": "permit",
      "outputs": [],
      "stateMutability": "nonpayable",
      "type": "function"
    },
    {
      "inputs": [],
      "name": "pool",
      "outputs": [
        {
          "internalType": "contract IGuniPool",
          "name": "",
          "type": "address"
        }
      ],
      "stateMutability": "view",
      "type": "function"
    },
    {
      "inputs": [
        {
          "internalType": "uint256",
          "name": "assets",
          "type": "uint256"
        }
      ],
      "name": "previewDeposit",
      "outputs": [
        {
          "internalType": "uint256",
          "name": "",
          "type": "uint256"
        }
      ],
      "stateMutability": "view",
      "type": "function"
    },
    {
      "inputs": [
        {
          "internalType": "uint256",
          "name": "shares",
          "type": "uint256"
        }
      ],
      "name": "previewMint",
      "outputs": [
        {
          "internalType": "uint256",
          "name": "",
          "type": "uint256"
        }
      ],
      "stateMutability": "view",
      "type": "function"
    },
    {
      "inputs": [
        {
          "internalType": "uint256",
          "name": "shares",
          "type": "uint256"
        }
      ],
      "name": "previewRedeem",
      "outputs": [
        {
          "internalType": "uint256",
          "name": "",
          "type": "uint256"
        }
      ],
      "stateMutability": "view",
      "type": "function"
    },
    {
      "inputs": [
        {
          "internalType": "uint256",
          "name": "assets",
          "type": "uint256"
        }
      ],
      "name": "previewWithdraw",
      "outputs": [
        {
          "internalType": "uint256",
          "name": "",
          "type": "uint256"
        }
      ],
      "stateMutability": "view",
      "type": "function"
    },
    {
      "inputs": [
        {
          "internalType": "uint256",
          "name": "shares",
          "type": "uint256"
        },
        {
          "internalType": "address",
          "name": "receiver",
          "type": "address"
        },
        {
          "internalType": "address",
          "name": "owner",
          "type": "address"
        }
      ],
      "name": "redeem",
      "outputs": [
        {
          "internalType": "uint256",
          "name": "assets",
          "type": "uint256"
        }
      ],
      "stateMutability": "nonpayable",
      "type": "function"
    },
    {
      "inputs": [],
      "name": "renounceOwnership",
      "outputs": [],
      "stateMutability": "nonpayable",
      "type": "function"
    },
    {
      "inputs": [],
      "name": "rewardDestination",
      "outputs": [
        {
          "internalType": "address",
          "name": "",
          "type": "address"
        }
      ],
      "stateMutability": "view",
      "type": "function"
    },
    {
      "inputs": [
        {
          "internalType": "uint256",
          "name": "",
          "type": "uint256"
        }
      ],
      "name": "rewardTokens",
      "outputs": [
        {
          "internalType": "contract ERC20",
          "name": "",
          "type": "address"
        }
      ],
      "stateMutability": "view",
      "type": "function"
    },
    {
      "inputs": [
        {
          "internalType": "address",
          "name": "newDestination",
          "type": "address"
        }
      ],
      "name": "setRewardDestination",
      "outputs": [],
      "stateMutability": "nonpayable",
      "type": "function"
    },
    {
      "inputs": [],
      "name": "symbol",
      "outputs": [
        {
          "internalType": "string",
          "name": "",
          "type": "string"
        }
      ],
      "stateMutability": "view",
      "type": "function"
    },
    {
      "inputs": [],
      "name": "totalAssets",
      "outputs": [
        {
          "internalType": "uint256",
          "name": "",
          "type": "uint256"
        }
      ],
      "stateMutability": "view",
      "type": "function"
    },
    {
      "inputs": [],
      "name": "totalSupply",
      "outputs": [
        {
          "internalType": "uint256",
          "name": "",
          "type": "uint256"
        }
      ],
      "stateMutability": "view",
      "type": "function"
    },
    {
      "inputs": [
        {
          "internalType": "address",
          "name": "to",
          "type": "address"
        },
        {
          "internalType": "uint256",
          "name": "amount",
          "type": "uint256"
        }
      ],
      "name": "transfer",
      "outputs": [
        {
          "internalType": "bool",
          "name": "",
          "type": "bool"
        }
      ],
      "stateMutability": "nonpayable",
      "type": "function"
    },
    {
      "inputs": [
        {
          "internalType": "address",
          "name": "from",
          "type": "address"
        },
        {
          "internalType": "address",
          "name": "to",
          "type": "address"
        },
        {
          "internalType": "uint256",
          "name": "amount",
          "type": "uint256"
        }
      ],
      "name": "transferFrom",
      "outputs": [
        {
          "internalType": "bool",
          "name": "",
          "type": "bool"
        }
      ],
      "stateMutability": "nonpayable",
      "type": "function"
    },
    {
      "inputs": [
        {
          "internalType": "address",
          "name": "newOwner",
          "type": "address"
        }
      ],
      "name": "transferOwnership",
      "outputs": [],
      "stateMutability": "nonpayable",
      "type": "function"
    },
    {
      "inputs": [],
      "name": "unpause",
      "outputs": [],
      "stateMutability": "nonpayable",
      "type": "function"
    },
    {
      "inputs": [
        {
          "internalType": "uint256",
          "name": "assets",
          "type": "uint256"
        },
        {
          "internalType": "address",
          "name": "receiver",
          "type": "address"
        },
        {
          "internalType": "address",
          "name": "owner",
          "type": "address"
        }
      ],
      "name": "withdraw",
      "outputs": [
        {
          "internalType": "uint256",
          "name": "shares",
          "type": "uint256"
        }
      ],
      "stateMutability": "nonpayable",
      "type": "function"
    }
  ],
  "transactionHash": "0x5b0f4b25d2a95c7eb2bf44b9bb3922fb578076f95ecf23929ee3a26c39928d6a",
  "args": [
    "0xC1DF4E2fd282e39346422e40C403139CD633Aacd",
    "0x7D28F081711f43Ad98ba0cB7C65af6268f27fdA7",
    "0x528330fF7c358FE1bAe348D23849CCed8edA5917",
    "0x0000000000000000000000000000000000000000",
    [
      "0xADAC33f543267c4D59a8c299cF804c303BC3e4aC"
    ]
  ],
  "numDeployments": 1,
  "bytecode": {
    "object": "0x6101406040523480156200001257600080fd5b5060405162002aa338038062002aa3833981016040819052620000359162000541565b818186876001600160a01b03166306fdde036040518163ffffffff1660e01b8152600401600060405180830381865afa15801562000077573d6000803e3d6000fd5b505050506040513d6000823e601f3d908101601f19168201604052620000a191908101906200068c565b604051602001620000b391906200072a565b604051602081830303815290604052886001600160a01b03166395d89b416040518163ffffffff1660e01b8152600401600060405180830381865afa15801562000101573d6000803e3d6000fd5b505050506040513d6000823e601f3d908101601f191682016040526200012b91908101906200068c565b6040516020016200013d91906200076a565b6040516020818303038152906040528282828181846001600160a01b031663313ce5676040518163ffffffff1660e01b8152600401602060405180830381865afa15801562000190573d6000803e3d6000fd5b505050506040513d601f19601f82011682018060405250810190620001b6919062000796565b8251620001cb906000906020860190620003e1565b508151620001e1906001906020850190620003e1565b5060ff81166080524660a052620001f7620002f3565b60c052505050506001600160a01b039190911660e0525062000219336200038f565b50506006805460ff60a01b1916905550600780546001600160a01b0319166001600160a01b03841617905580516200025990600890602084019062000470565b5050506001600160a01b038381166101008190528582166101205260e05160405163095ea7b360e01b8152600481019290925260001960248301529091169063095ea7b3906044016020604051808303816000875af1158015620002c1573d6000803e3d6000fd5b505050506040513d601f19601f82011682018060405250810190620002e79190620007c2565b505050505050620008c7565b60007f8b73c3c69bb8fe3d512ecc4cf759cc79239f7b179b0ffacaa9a75d522b39400f600060405162000327919062000823565b6040805191829003822060208301939093528101919091527fc89efdaa54c0f20c7adf612882df0950f5a951637e0307cdcb4c672f298b8bc660608201524660808201523060a082015260c00160405160208183030381529060405280519060200120905090565b600680546001600160a01b038381166001600160a01b0319831681179093556040519116919082907f8be0079c531659141344cd1fd0a4f28419497f9722a3daafe3b4186f6b6457e090600090a35050565b828054620003ef90620007e6565b90600052602060002090601f0160209004810192826200041357600085556200045e565b82601f106200042e57805160ff19168380011785556200045e565b828001600101855582156200045e579182015b828111156200045e57825182559160200191906001019062000441565b506200046c929150620004c8565b5090565b8280548282559060005260206000209081019282156200045e579160200282015b828111156200045e57825182546001600160a01b0319166001600160a01b0390911617825560209092019160019091019062000491565b5b808211156200046c5760008155600101620004c9565b6001600160a01b0381168114620004f557600080fd5b50565b634e487b7160e01b600052604160045260246000fd5b604051601f8201601f191681016001600160401b0381118282101715620005395762000539620004f8565b604052919050565b600080600080600060a086880312156200055a57600080fd5b85516200056781620004df565b809550506020808701516200057c81620004df565b60408801519095506200058f81620004df565b6060880151909450620005a281620004df565b60808801519093506001600160401b0380821115620005c057600080fd5b818901915089601f830112620005d557600080fd5b815181811115620005ea57620005ea620004f8565b8060051b9150620005fd8483016200050e565b818152918301840191848101908c8411156200061857600080fd5b938501935b838510156200064657845192506200063583620004df565b82825293850193908501906200061d565b8096505050505050509295509295909350565b60005b83811015620006765781810151838201526020016200065c565b8381111562000686576000848401525b50505050565b6000602082840312156200069f57600080fd5b81516001600160401b0380821115620006b757600080fd5b818401915084601f830112620006cc57600080fd5b815181811115620006e157620006e1620004f8565b620006f6601f8201601f19166020016200050e565b91508082528560208285010111156200070e57600080fd5b6200072181602084016020860162000659565b50949350505050565b65026b4b230b9960d51b8152600082516200074d81600685016020870162000659565b650815985d5b1d60d21b6006939091019283015250600c01919050565b6136bb60f11b8152600082516200078981600285016020870162000659565b9190910160020192915050565b600060208284031215620007a957600080fd5b815160ff81168114620007bb57600080fd5b9392505050565b600060208284031215620007d557600080fd5b81518015158114620007bb57600080fd5b600181811c90821680620007fb57607f821691505b602082108114156200081d57634e487b7160e01b600052602260045260246000fd5b50919050565b600080835481600182811c9150808316806200084057607f831692505b60208084108214156200086157634e487b7160e01b86526022600452602486fd5b8180156200087857600181146200088a57620008b9565b60ff19861689528489019650620008b9565b60008a81526020902060005b86811015620008b15781548b82015290850190830162000896565b505084890196505b509498975050505050505050565b60805160a05160c05160e051610100516101205161211c62000987600039600061043b0152600081816102d6015281816105f70152818161094301528181610bfa0152818161198301528181611bb00152611c810152600081816103840152818161068401528181610c2401528181610d6c01528181610f24015281816110dc01528181611172015281816112550152818161135b015281816113f101526114d401526000610a4c01526000610a1c0152600061033b015261211c6000f3fe608060405234801561001057600080fd5b50600436106102535760003560e01c8063715018a611610146578063b460af94116100c3578063d505accf11610087578063d505accf1461052e578063d905777e14610541578063dd62ed3e1461056a578063ef8b30f714610595578063f2fde38b146105a8578063fda45d86146105bb57600080fd5b8063b460af94146104f5578063ba08765214610508578063c63d75b6146103c1578063c6e6f5921461051b578063ce96cb77146103a657600080fd5b80638da5cb5b1161010a5780638da5cb5b146104a357806394bf804d146104b457806395d89b41146104c7578063a9059cbb146104cf578063b3d7f6b9146104e257600080fd5b8063715018a61461042e5780637acf5b92146104365780637bb7bed11461045d5780637ecebe00146104705780638457d0671461049057600080fd5b80633644e515116101d4578063402d267d11610198578063402d267d146103c15780634cdad506146103d65780635c975abb146103e95780636e553f65146103fb57806370a082311461040e57600080fd5b80633644e5151461036f578063372500ab1461037757806338d52e0f1461037f5780633af9e669146103a65780633f4ba83a146103b957600080fd5b806316f0115b1161021b57806316f0115b146102d157806318160ddd1461031057806323b872dd14610319578063283579781461032c578063313ce5671461033657600080fd5b806301e1d1141461025857806306fdde031461027357806307a2d13a14610288578063095ea7b31461029b5780630a28a477146102be575b600080fd5b6102606105ce565b6040519081526020015b60405180910390f35b61027b6106d3565b60405161026a9190611d1a565b610260610296366004611d6f565b610761565b6102ae6102a9366004611da4565b61078e565b604051901515815260200161026a565b6102606102cc366004611d6f565b6107fb565b6102f87f000000000000000000000000000000000000000000000000000000000000000081565b6040516001600160a01b03909116815260200161026a565b61026060025481565b6102ae610327366004611dce565b61081b565b6103346108fb565b005b61035d7f000000000000000000000000000000000000000000000000000000000000000081565b60405160ff909116815260200161026a565b610260610a18565b610334610a6e565b6102f87f000000000000000000000000000000000000000000000000000000000000000081565b6102606103b4366004611e0a565b610b89565b610334610bab565b6102606103cf366004611e0a565b5060001990565b6102606103e4366004611d6f565b610ce1565b600654600160a01b900460ff166102ae565b610260610409366004611e25565b610cec565b61026061041c366004611e0a565b60036020526000908152604090205481565b610334610dee565b6102f87f000000000000000000000000000000000000000000000000000000000000000081565b6102f861046b366004611d6f565b610e22565b61026061047e366004611e0a565b60056020526000908152604090205481565b61033461049e366004611e0a565b610e4c565b6006546001600160a01b03166102f8565b6102606104c2366004611e25565b610edf565b61027b610fa6565b6102ae6104dd366004611da4565b610fb3565b6102606104f0366004611d6f565b611019565b610260610503366004611e51565b611038565b610260610516366004611e51565b61127c565b610260610529366004611d6f565b6114fb565b61033461053c366004611e8d565b61151b565b61026061054f366004611e0a565b6001600160a01b031660009081526003602052604090205490565b610260610578366004611f00565b600460209081526000928352604080842090915290825290205481565b6102606105a3366004611d6f565b61175f565b6103346105b6366004611e0a565b61176a565b6007546102f8906001600160a01b031681565b600654600090600160a01b900460ff1661066f57604051630991d88160e21b81523060048201527f00000000000000000000000000000000000000000000000000000000000000006001600160a01b031690632647620490602401602060405180830381865afa158015610646573d6000803e3d6000fd5b505050506040513d601f19601f8201168201806040525081019061066a9190611f2a565b905090565b6040516370a0823160e01b81523060048201527f00000000000000000000000000000000000000000000000000000000000000006001600160a01b0316906370a0823190602401602060405180830381865afa158015610646573d6000803e3d6000fd5b600080546106e090611f43565b80601f016020809104026020016040519081016040528092919081815260200182805461070c90611f43565b80156107595780601f1061072e57610100808354040283529160200191610759565b820191906000526020600020905b81548152906001019060200180831161073c57829003601f168201915b505050505081565b6002546000908015610785576107806107786105ce565b849083611805565b610787565b825b9392505050565b3360008181526004602090815260408083206001600160a01b038716808552925280832085905551919290917f8c5be1e5ebec7d5bd14f71427d1e84f3dd0314c0f7b2291e5b200ac8c7c3b925906107e99086815260200190565b60405180910390a35060015b92915050565b600254600090801561078557610780816108136105ce565b859190611824565b6001600160a01b03831660009081526004602090815260408083203384529091528120546000198114610877576108528382611f94565b6001600160a01b03861660009081526004602090815260408083203384529091529020555b6001600160a01b0385166000908152600360205260408120805485929061089f908490611f94565b90915550506001600160a01b03808516600081815260036020526040908190208054870190555190918716906000805160206120f0833981519152906108e89087815260200190565b60405180910390a3506001949350505050565b6006546001600160a01b0316331461092e5760405162461bcd60e51b815260040161092590611fab565b60405180910390fd5b604051630991d88160e21b81523060048201527f00000000000000000000000000000000000000000000000000000000000000006001600160a01b031690632e1a7d4d908290632647620490602401602060405180830381865afa15801561099a573d6000803e3d6000fd5b505050506040513d601f19601f820116820180604052508101906109be9190611f2a565b6040518263ffffffff1660e01b81526004016109dc91815260200190565b600060405180830381600087803b1580156109f657600080fd5b505af1158015610a0a573d6000803e3d6000fd5b50505050610a16611852565b565b60007f00000000000000000000000000000000000000000000000000000000000000004614610a495761066a6118d4565b507f000000000000000000000000000000000000000000000000000000000000000090565b610a7661196e565b60085460005b81811015610b8557600060088281548110610a9957610a99611fe0565b60009182526020822001546040516370a0823160e01b81523060048201526001600160a01b03909116925082906370a0823190602401602060405180830381865afa158015610aec573d6000803e3d6000fd5b505050506040513d601f19601f82011682018060405250810190610b109190611f2a565b600754909150610b2d906001600160a01b038481169116836119ba565b816001600160a01b03167f1f89f96333d3133000ee447473151fa9606543368f02271c9d95ae14f13bcc6782604051610b6891815260200190565b60405180910390a250508080610b7d90611ff6565b915050610a7c565b5050565b6001600160a01b0381166000908152600360205260408120546107f590610761565b6006546001600160a01b03163314610bd55760405162461bcd60e51b815260040161092590611fab565b610bdd611a32565b6040516370a0823160e01b81523060048201526001600160a01b037f000000000000000000000000000000000000000000000000000000000000000081169163b6b55f25917f000000000000000000000000000000000000000000000000000000000000000016906370a0823190602401602060405180830381865afa158015610c6b573d6000803e3d6000fd5b505050506040513d601f19601f82011682018060405250810190610c8f9190611f2a565b6040518263ffffffff1660e01b8152600401610cad91815260200190565b600060405180830381600087803b158015610cc757600080fd5b505af1158015610cdb573d6000803e3d6000fd5b50505050565b60006107f582610761565b600654600090600160a01b900460ff1615610d195760405162461bcd60e51b815260040161092590612011565b610d228361175f565b905080610d5f5760405162461bcd60e51b815260206004820152600b60248201526a5a45524f5f53484152455360a81b6044820152606401610925565b610d946001600160a01b037f000000000000000000000000000000000000000000000000000000000000000016333086611ab6565b610d9e8282611b40565b60408051848152602081018390526001600160a01b0384169133917fdcbc1c05240f31ff3ad067ef1ee35ce4997762752e3a095284754544f4c709d7910160405180910390a36107f58382611b9a565b6006546001600160a01b03163314610e185760405162461bcd60e51b815260040161092590611fab565b610a166000611c19565b60088181548110610e3257600080fd5b6000918252602090912001546001600160a01b0316905081565b6007546001600160a01b03163314610e955760405162461bcd60e51b815260206004820152600c60248201526b15539055551213d49256915160a21b6044820152606401610925565b600780546001600160a01b0319166001600160a01b0383169081179091556040517fb7e97ad603f12568684fc43c82127d953e94f3954cf36344cbbfa34d67b0b0cf90600090a250565b600654600090600160a01b900460ff1615610f0c5760405162461bcd60e51b815260040161092590612011565b610f1583611019565b9050610f4c6001600160a01b037f000000000000000000000000000000000000000000000000000000000000000016333084611ab6565b610f568284611b40565b60408051828152602081018590526001600160a01b0384169133917fdcbc1c05240f31ff3ad067ef1ee35ce4997762752e3a095284754544f4c709d7910160405180910390a36107f58184611b9a565b600180546106e090611f43565b33600090815260036020526040812080548391908390610fd4908490611f94565b90915550506001600160a01b038316600081815260036020526040908190208054850190555133906000805160206120f0833981519152906107e99086815260200190565b6002546000908015610785576107806110306105ce565b849083611824565b6000611043846107fb565b9050336001600160a01b038316146110b3576001600160a01b038216600090815260046020908152604080832033845290915290205460001981146110b15761108c8282611f94565b6001600160a01b03841660009081526004602090815260408083203384529091529020555b505b600654600160a01b900460ff166111f3576040516370a0823160e01b81523060048201526000907f00000000000000000000000000000000000000000000000000000000000000006001600160a01b0316906370a0823190602401602060405180830381865afa15801561112b573d6000803e3d6000fd5b505050506040513d601f19601f8201168201806040525081019061114f9190611f2a565b905061115b8583611c6b565b6040516370a0823160e01b815230600482015281907f00000000000000000000000000000000000000000000000000000000000000006001600160a01b0316906370a0823190602401602060405180830381865afa1580156111c1573d6000803e3d6000fd5b505050506040513d601f19601f820116820180604052508101906111e59190611f2a565b6111ef9190611f94565b9450505b6111fd8282611cb8565b60408051858152602081018390526001600160a01b03808516929086169133917ffbde797d201c681b91056529119e0b02407c7bb96a4a2c75c01fc9667232c8db910160405180910390a46107876001600160a01b037f00000000000000000000000000000000000000000000000000000000000000001684866119ba565b6000336001600160a01b038316146112ec576001600160a01b038216600090815260046020908152604080832033845290915290205460001981146112ea576112c58582611f94565b6001600160a01b03841660009081526004602090815260408083203384529091529020555b505b6112f584610ce1565b9050806113325760405162461bcd60e51b815260206004820152600b60248201526a5a45524f5f41535345545360a81b6044820152606401610925565b600654600160a01b900460ff16611472576040516370a0823160e01b81523060048201526000907f00000000000000000000000000000000000000000000000000000000000000006001600160a01b0316906370a0823190602401602060405180830381865afa1580156113aa573d6000803e3d6000fd5b505050506040513d601f19601f820116820180604052508101906113ce9190611f2a565b90506113da8286611c6b565b6040516370a0823160e01b815230600482015281907f00000000000000000000000000000000000000000000000000000000000000006001600160a01b0316906370a0823190602401602060405180830381865afa158015611440573d6000803e3d6000fd5b505050506040513d601f19601f820116820180604052508101906114649190611f2a565b61146e9190611f94565b9150505b61147c8285611cb8565b60408051828152602081018690526001600160a01b03808516929086169133917ffbde797d201c681b91056529119e0b02407c7bb96a4a2c75c01fc9667232c8db910160405180910390a46107876001600160a01b037f00000000000000000000000000000000000000000000000000000000000000001684836119ba565b600254600090801561078557610780816115136105ce565b859190611805565b4284101561156b5760405162461bcd60e51b815260206004820152601760248201527f5045524d49545f444541444c494e455f455850495245440000000000000000006044820152606401610925565b60006001611577610a18565b6001600160a01b038a811660008181526005602090815260409182902080546001810190915582517f6e71edae12b1b97f4d1f60370fef10105fa2faae0126114a169c64845d6126c98184015280840194909452938d166060840152608083018c905260a083019390935260c08083018b90528151808403909101815260e08301909152805192019190912061190160f01b6101008301526101028201929092526101228101919091526101420160408051601f198184030181528282528051602091820120600084529083018083525260ff871690820152606081018590526080810184905260a0016020604051602081039080840390855afa158015611683573d6000803e3d6000fd5b5050604051601f1901519150506001600160a01b038116158015906116b95750876001600160a01b0316816001600160a01b0316145b6116f65760405162461bcd60e51b815260206004820152600e60248201526d24a72b20a624a22fa9a4a3a722a960911b6044820152606401610925565b6001600160a01b0390811660009081526004602090815260408083208a8516808552908352928190208990555188815291928a16917f8c5be1e5ebec7d5bd14f71427d1e84f3dd0314c0f7b2291e5b200ac8c7c3b925910160405180910390a350505050505050565b60006107f5826114fb565b6006546001600160a01b031633146117945760405162461bcd60e51b815260040161092590611fab565b6001600160a01b0381166117f95760405162461bcd60e51b815260206004820152602660248201527f4f776e61626c653a206e6577206f776e657220697320746865207a65726f206160448201526564647265737360d01b6064820152608401610925565b61180281611c19565b50565b82820281151584158583048514171661181d57600080fd5b0492915050565b82820281151584158583048514171661183c57600080fd5b6001826001830304018115150290509392505050565b600654600160a01b900460ff161561187c5760405162461bcd60e51b815260040161092590612011565b6006805460ff60a01b1916600160a01b1790557f62e78cea01bee320cd4e420270b5ea74000d11b0c9f74754ebdbfc544b05a2586118b73390565b6040516001600160a01b03909116815260200160405180910390a1565b60007f8b73c3c69bb8fe3d512ecc4cf759cc79239f7b179b0ffacaa9a75d522b39400f6000604051611906919061203b565b6040805191829003822060208301939093528101919091527fc89efdaa54c0f20c7adf612882df0950f5a951637e0307cdcb4c672f298b8bc660608201524660808201523060a082015260c00160405160208183030381529060405280519060200120905090565b6040516330769c8560e11b81523060048201527f00000000000000000000000000000000000000000000000000000000000000006001600160a01b0316906360ed390a90602401610cad565b600060405163a9059cbb60e01b8152836004820152826024820152602060006044836000895af13d15601f3d1160016000511416171691505080610cdb5760405162461bcd60e51b815260206004820152600f60248201526e1514905394d1915497d19052531151608a1b6044820152606401610925565b600654600160a01b900460ff16611a825760405162461bcd60e51b815260206004820152601460248201527314185d5cd8589b194e881b9bdd081c185d5cd95960621b6044820152606401610925565b6006805460ff60a01b191690557f5db9ee0a495bf2e6ff9c91a7834c1ba4fdd244a5e8aa4e537bd38aeae4b073aa336118b7565b60006040516323b872dd60e01b81528460048201528360248201528260448201526020600060648360008a5af13d15601f3d1160016000511416171691505080611b395760405162461bcd60e51b81526020600482015260146024820152731514905394d1915497d19493d357d1905253115160621b6044820152606401610925565b5050505050565b8060026000828254611b5291906120d7565b90915550506001600160a01b0382166000818152600360209081526040808320805486019055518481526000805160206120f083398151915291015b60405180910390a35050565b60405163b6b55f2560e01b8152600481018390527f00000000000000000000000000000000000000000000000000000000000000006001600160a01b03169063b6b55f25906024015b600060405180830381600087803b158015611bfd57600080fd5b505af1158015611c11573d6000803e3d6000fd5b505050505050565b600680546001600160a01b038381166001600160a01b0319831681179093556040519116919082907f8be0079c531659141344cd1fd0a4f28419497f9722a3daafe3b4186f6b6457e090600090a35050565b604051632e1a7d4d60e01b8152600481018390527f00000000000000000000000000000000000000000000000000000000000000006001600160a01b031690632e1a7d4d90602401611be3565b6001600160a01b03821660009081526003602052604081208054839290611ce0908490611f94565b90915550506002805482900390556040518181526000906001600160a01b038416906000805160206120f083398151915290602001611b8e565b600060208083528351808285015260005b81811015611d4757858101830151858201604001528201611d2b565b81811115611d59576000604083870101525b50601f01601f1916929092016040019392505050565b600060208284031215611d8157600080fd5b5035919050565b80356001600160a01b0381168114611d9f57600080fd5b919050565b60008060408385031215611db757600080fd5b611dc083611d88565b946020939093013593505050565b600080600060608486031215611de357600080fd5b611dec84611d88565b9250611dfa60208501611d88565b9150604084013590509250925092565b600060208284031215611e1c57600080fd5b61078782611d88565b60008060408385031215611e3857600080fd5b82359150611e4860208401611d88565b90509250929050565b600080600060608486031215611e6657600080fd5b83359250611e7660208501611d88565b9150611e8460408501611d88565b90509250925092565b600080600080600080600060e0888a031215611ea857600080fd5b611eb188611d88565b9650611ebf60208901611d88565b95506040880135945060608801359350608088013560ff81168114611ee357600080fd5b9699959850939692959460a0840135945060c09093013592915050565b60008060408385031215611f1357600080fd5b611f1c83611d88565b9150611e4860208401611d88565b600060208284031215611f3c57600080fd5b5051919050565b600181811c90821680611f5757607f821691505b60208210811415611f7857634e487b7160e01b600052602260045260246000fd5b50919050565b634e487b7160e01b600052601160045260246000fd5b600082821015611fa657611fa6611f7e565b500390565b6020808252818101527f4f776e61626c653a2063616c6c6572206973206e6f7420746865206f776e6572604082015260600190565b634e487b7160e01b600052603260045260246000fd5b600060001982141561200a5761200a611f7e565b5060010190565b60208082526010908201526f14185d5cd8589b194e881c185d5cd95960821b604082015260600190565b600080835481600182811c91508083168061205757607f831692505b602080841082141561207757634e487b7160e01b86526022600452602486fd5b81801561208b576001811461209c576120c9565b60ff198616895284890196506120c9565b60008a81526020902060005b868110156120c15781548b8201529085019083016120a8565b505084890196505b509498975050505050505050565b600082198211156120ea576120ea611f7e565b50019056feddf252ad1be2c89b69c2b068fc378daa952ba7f163c4a11628f55a4df523b3efa164736f6c634300080a000a",
    "linkReferences": {}
  },
  "methodIdentifiers": {
    "DOMAIN_SEPARATOR()": "3644e515",
    "allowance(address,address)": "dd62ed3e",
    "approve(address,uint256)": "095ea7b3",
    "asset()": "38d52e0f",
    "balanceOf(address)": "70a08231",
    "balanceOfUnderlying(address)": "3af9e669",
    "claimRewards()": "372500ab",
    "convertToAssets(uint256)": "07a2d13a",
    "convertToShares(uint256)": "c6e6f592",
    "decimals()": "313ce567",
    "deposit(uint256,address)": "6e553f65",
    "emergencyWithdrawAndPause()": "28357978",
    "flywheel()": "7acf5b92",
    "maxDeposit(address)": "402d267d",
    "maxMint(address)": "c63d75b6",
    "maxRedeem(address)": "d905777e",
    "maxWithdraw(address)": "ce96cb77",
    "mint(uint256,address)": "94bf804d",
    "name()": "06fdde03",
    "nonces(address)": "7ecebe00",
    "owner()": "8da5cb5b",
    "paused()": "5c975abb",
    "permit(address,address,uint256,uint256,uint8,bytes32,bytes32)": "d505accf",
    "pool()": "16f0115b",
    "previewDeposit(uint256)": "ef8b30f7",
    "previewMint(uint256)": "b3d7f6b9",
    "previewRedeem(uint256)": "4cdad506",
    "previewWithdraw(uint256)": "0a28a477",
    "redeem(uint256,address,address)": "ba087652",
    "renounceOwnership()": "715018a6",
    "rewardDestination()": "fda45d86",
    "rewardTokens(uint256)": "7bb7bed1",
    "setRewardDestination(address)": "8457d067",
    "symbol()": "95d89b41",
    "totalAssets()": "01e1d114",
    "totalSupply()": "18160ddd",
    "transfer(address,uint256)": "a9059cbb",
    "transferFrom(address,address,uint256)": "23b872dd",
    "transferOwnership(address)": "f2fde38b",
    "unpause()": "3f4ba83a",
    "withdraw(uint256,address,address)": "b460af94"
  }
}